:100000000C9434000C944F000C944F000C944F004F
:100010000C944F000C944F000C944F000C944F0024
:100020000C944F000C944F000C944F000C944F0014
:100030000C944F000C944F000C944F000C944F0004
:100040000C944F000C944F000C944F000C944F00F4
:100050000C944F000C944F000C944F000C944F00E4
:100060000C944F000C944F0011241FBECFEFD4E02E
:10007000DEBFCDBF11E0A0E0B1E0E8EFF0E002C0EC
:1000800005900D92A030B107D9F711E0A0E0B1E0E2
:1000900001C01D92A030B107E1F70C9467000C94E9
:1000A00000008FEF84B987B98EEF8AB9089501C037
:1000B0000197009759F020E00000000000000000C8
:1000C000000000002F5F2A3599F3F6CF08958FEFD7
:1000D00084B987B98EEF8AB98FEF88B985B98BB9A2
:1000E00084EF91E00E94570018B815B81BB884EF50
:0800F00091E00E945700F0CFDF
:00000001FF